S0170000496E746572666163655F526F626F742E7372656317
S11300000C9434000C943E000C943E000C943E007E
S11300100C943E000C943E000C943E000C943E0064
S11300200C943E000C943E000C943E000C943E0054
S11300300C943E000C943E000C943E000C943E0044
S11300400C943E000C943E000C943E000C943E0034
S11300500C943E000C943E000C943E000C943E0024
S11300600C943E000C943E0011241FBECFEFD8E048
S1130070DEBFCDBF0E9440000C949B000C94000096
S11300808FEF8AB970E860E450E240E138E024E0A0
S113009092E081E07BB9AFEFE1EEF4E0A150E04003
S11300A0F040E1F700C000006BB9AFEFE1EEF4E01F
S11300B0A150E040F040E1F700C000005BB9AFEFB1
S11300C0E1EEF4E0A150E040F040E1F700C00000B0
S11300D04BB9AFEFE1EEF4E0A150E040F040E1F7BE
S11300E000C000003BB9AFEFE1EEF4E0A150E04006
S11300F0F040E1F700C000002BB9AFEFE1EEF4E00F
S1130100A150E040F040E1F700C000009BB9AFEF20
S1130110E1EEF4E0A150E040F040E1F700C000005F
S11301208BB9AFEFE1EEF4E0A150E040F040E1F72D
S10D013000C00000AFCFF894FFCF29
S9030000FC
