S01B0000496E746572666163655F666F725F726F626F742E737265634D
S11300000C94E5020C9402030C9402030C94020376
S11300100C9402030C9402030C9402030C94020348
S11300200C9402030C9402030C9402030C94020338
S11300300C9402030C9402030C9402030C94020328
S11300400C9402030C9402030C9402030C94020318
S11300500C9402030C9402030C9402030C94020308
S11300600C9402030C9402033F3F3F3F203F3F3F69
S11300703F3F3F3F3F3F3F3F3F3F3F3F3F3F3F3F8C
S11300803F3F3F3F3A2920203A2920203A29202087
S11300903A29003F3F3F3F3F3F3F0048656C6C6F4C
S11300A020576F726C64203A2900333331304C434B
S11300B04400800000800000800000800000800078
S11300C00080000080804040408080C0C040C0A0CC
S11300D0E0C0E0E0F0F0F8F8F8FCFCFEEEF4F0F03C
S11300E070300080000080000C9C1C38B83838B890
S11300F0F8F0F0F0F0F0F0F0F0F0F0F0F0F0F0F0F4
S1130100F0F0F8F8F8F888208A20082208000A009D
S113011000028071BADAFDDDEDDEEEF7FFFBFDFDD6
S1130120FEFF7F3F1F9F3F7F6F0FAF1FBF3E3C7A95
S113013078702288A02A800862E0E0F2F058DAF8A9
S1130140FC92FEFFFFD3FFFDF3E1F0F97FBF3F8F89
S11301502F4FAF0F4FA70FAF872F828020C0808013
S11301605040C4D0A0E8E4EAFFFBFDFFFFFFFFFF1F
S1130170EF4F2753A854294AB582ACA18AB6504DF3
S113018032A44AB4A94A52B4AA45A8DA22ACD22A63
S113019052A8524CB0AD435BB345A85BA3AB55A882
S11301A05254A956A845BAA4495AA254AA52FEFFC9
S11301B0FFFEFDFFFFFFFEFFFFFFFFFFFFFFFFFF4F
S11301C0FFFFFF7FFFFEBF7FBFBFFFDFBF5FDF7F9C
S11301D0DF7FDFAF7FEE8EF16E99F76ADDB26ED509
S11301E07AD7AC75DB6DD57AD7AC7BE5DEA977DA47
S11301F0B5EE59B6EBDDB669D6BFE855EFB9D6ED25
S1130200B55BABFFFDF7FF01010101E1C18103050E
S11302100F1D2F7E01000101FFFE03010100F1F01B
S1130220F171F1F1B1F101010103FEFF01010101DD
S11302309E1B0D070341E1F1F96DFFFF0001010170
S1130240FFFFEB3E0D03014171704101030E3BEFD3
S1130250FEFBEE7DF7FFFFFFFFFEFFF0F0F0F0FF87
S1130260FFFFFFFEFCF8F0F0F0F0F0F0FFFFF8F015
S1130270F0F0F1F1F1F1F1F1F1F1F0F0F0F8FFFF4C
S1130280F0F0F0F0FFFFFEFCF8F0F0F1F3F7FFFF01
S1130290F0F0F0F0FFF3F0F0F0FCFCFCFCFCFCFCF4
S11302A0FCF0F0F0F3FFFFFFFFFF00000000000090
S11302B0005F00000007000700147F147F14242A45
S11302C07F2A124C2C1068643649552250000503CD
S11302D00000001C2241000041221C0014083E08BA
S11302E01408083E080800005030001010101010C8
S11302F0006060000020100804023E5149453E00A1
S1130300427F400042615149462141454B31181416
S1130310127F1027454545393C4A49493001710946
S113032005033649494936064949291E003636002F
S1130330000056360000081422410014141414144A
S113034000412214080201510906324979413E7ED6
S11303501111117E7F494949363E414141227F4175
S113036041221C7F494949417F090909013E41490C
S1130370497A7F0808087F00417F41002040413FBF
S1130380017F081422417F404040407F020C027FDD
S11303907F0408107F3E4141413E7F090909063E22
S11303A04151215E7F0919294646494949310101D4
S11303B07F01013F4040403F1F2040201F3F403805
S11303C0403F6314081463070870080761514945E6
S11303D043007F41410002040810200041417F0096
S11303E00402010204404040404000010204002095
S11303F0545454787F48444438384444442038445E
S113040044487F3854545418087E0901020C52524F
S1130410523E7F0804047800447D40002040443D5F
S1130420007F1028440000417F40007C04180478B9
S11304307C0804047838444444387C1414140808B0
S11304401414187C7C080404084854545420043FB1
S11304504440203C4040207C1C2040201C3C403038
S1130460403C44281028440C5050503C4464544CA4
S113047044000836410000007F00000041360800B7
S11304800804081008FFFFFFFFFF7C1211127C7F95
S1130490494949317F494949367F01010101603F9A
S11304A0213F607F4949494177087F0877224149C4
S11304B049367F1008047F7E1009047E7F081422C9
S11304C041403E01017F7F020C027F7F0808087FC4
S11304D03E4141413E7F0101017F7F090909063EFA
S11304E04141412201017F0101074848483F0E1163
S11304F07F110E63140814633F20203F600708082F
S1130500087F7F407E407F3F203F207F017F484817
S1130510307F4830007F007F484830224149493EBF
S11305207F083E413E462919097F20545454783CA3
S11305304A4A4A317C545428007C04040C00603C30
S1130540243C6038545454186C107C106C0044548F
S113055054287C2010087C7C2112097C7C102844BF
S113056000403804047C7C0810087C7C1010107C4B
S113057038444444387C0404047C7C14141408383F
S11305804444440004047C04040C5050503C0814BB
S11305907C140844281028443C20203C600C101093
S11305A0107C7C407C407C3C203C207C047C505073
S11305B0207C5020007C007C505020284454543827
S11305C07C10384438485434147C11241FBECFEFB7
S11305D0D8E0DEBFCDBF11E0A0E0B1E0EAE5F0E194
S11305E002C005900D92A630B107D9F723E0A6E02A
S11305F0B1E001C01D92A530B207E1F70E940403E7
S11306000C942B080C940000CF93DF9300D000D0FF
S11306101F92CDB7DEB70E9475040E94D30382EB0C
S113062090E00E94E5070E94EB032FEF83E294EF32
S1130630215080409040E1F700C000000E94D303A5
S113064001E025E044E063E080E00E94140725E037
S113065044E063E08FE40E94140725E044E06FE285
S113066080E00E94140725E044E06FE28FE40E94DA
S1130670140762E080E00E949B046AEA70E082E072
S11306800E94A00563E080E00E949B046BE970E097
S113069081E00E94A00585E0E0E0F1E0DE01119632
S11306A001900D928A95E1F722E043E065E0CE01E6
S11306B001960E9459070E94EB032FEF83E294EF07
S11306C0215080409040E1F700C000000E94D30315
S11306D062E080E00E949B0463E970E082E00E9493
S11306E0A00563E080E00E949B0468E670E081E07E
S11306F00E94A0050E94EB032FEF83E294EF2150A8
S113070080409040E1F700C000000E94D3032FE234
S113071043E560E080E00E949C0721E044E167E15A
S113072089E20E94950621E043E062E181E20E94B1
S1130730950621E043E062E181E30E94950641E0F1
S113074062E181E20E94BC0541E062E181E30E9432
S1130750BC0522E24EE262E283E20E94170622E234
S113076043E26FE18EE10E94170622E24EE26FE15E
S113077083E30E9417060E94EB032FEF83E294EFBA
S1130780215080409040E1F700C0000046CF2A98F5
S1130790613011F4299A01C029988EBD0DB407FE69
S11307A0FDCF2A9A089588EF91E0EDE0F1E0DF01B2
S11307B09C011D9221503040E1F710920C011092DF
S11307C00B0187EF91E090930A018093090181E086
S11307D0809306010895EF92FF920F931F93CF9396
S11307E0DF9380910B0190910C0199232CF41092CA
S11307F00C0110920B0109C0883F914034F087EF3F
S113080091E090930C0180930B01809109019091E8
S11308100A0199232CF410920A011092090109C0CB
S1130820883F914034F087EF91E090930A018093E0
S1130830090100910B0110910C01C80164E570E0FD
S11308400E94FA07D62FC82F60E080680E94C70371
S1130850DF5F60E08D2F80640E94C70380910901EF
S113086090910A01801791070CF1C801835F9E4F94
S11308707C0161E0F70181917F010E94C703CF5F92
S1130880C43558F060E080E80E94C703DF5F60E091
S11308908D2F80640E94C703C0E00F5F1F4F8091BB
S11308A0090190910A01801791071CF760E081E229
S11308B00E94C70360E085E40E94C70360E080E211
S11308C00E94C70387EF91E090930C0180930B0182
S11308D010920A011092090110920601DF91CF9142
S11308E01F910F91FF90EF9008952C9A84B18E631D
S11308F084B92C982C9A80E58CBD2A9A60E081E218
S11309000E94C70360E088EC0E94C70360E086E0B1
S11309100E94C70360E083E10E94C70360E080E2B5
S11309200E94C70360E08CE00E94C7030E94D303C7
S11309300E94EB0308958E30A8F46630A8F490E08A
S11309409C01220F331F820F931F880F991F24E5E8
S1130950629F800D911D11249093080180930701DB
S113096080E0089581E0089581E008950F931F9336
S1130970CF93DF93409107015091080120910B011F
S113098030910C014217530724F450930C01409307
S11309900B01E0EEE60FE03608F4A1C0603C08F479
S11309A09DC0E0EAE60F9BC08491880F8D93319639
S11309B0A217B307C9F74B5F5F4F509308014093E9
S11309C0070166C0823009F063C0CA0184559109E9
S11309D020910B0130910C01821793070CF097C002
S11309E090930C0180930B0192C09491990F892FDD
S11309F08470282F220F820F282F220F220F892F75
S1130A008270382F330F830F880F822BC92FC87041
S1130A10C09FC02D11241C2F182B92959F70892FD5
S1130A208170382F330F830F392F3270232F220F09
S1130A30320F330F832B292F2470322F330F230FC0
S1130A40220F220F822B292F2870209F202D112462
S1130A50982F922B9D0121503109E90118831C9391
S1130A602C5A3F4FE90198832F5F3F4FE901988348
S1130A7031961296A617B70709F0B7CFCA010B969D
S1130A8068EF71E00E94FA079093080180930701D0
S1130A9080910701909108012091090130910A0188
S1130AA02817390724F490930A0180930901FC0163
S1130AB0E35FFE4F1082873FD1E09D0731F410922F
S1130AC008011092070182E036C001969093080154
S1130AD08093070180E02FC081E02DC0EFE58130D5
S1130AE009F070CF4091070150910801F0E0CF0167
S1130AF0880F991F880F991FE80FF91FE655FD4FBE
S1130B00DA01A35FBE4F9A012E5E3E4F4DCF99236B
S1130B101CF3F0E0CF01880F991F880F991FE80F8D
S1130B20F91FE655FD4FDA01A654BF4FBA016C53C5
S1130B307F4F08E15ACFDF91CF911F910F91089514
S1130B401F93CF93DF93182FEB01FB01649166236E
S1130B5061F0812F0E94B604813049F02196FE0194
S1130B6064916111F6CF80E003C080E001C081E0B0
S1130B70DF91CF911F910895843508F052C06033FE
S1130B8008F051C0262F26952695269590E034E549
S1130B90239F800D911D1124220F220F220F621B0F
S1130BA0FC01E35FFE4F208141110AC041E050E0A7
S1130BB002C0440F551F6A95E2F74095242315C0DF
S1130BC0413049F441E050E002C0440F551F6A959A
S1130BD0E2F7242B0AC0423041F441E050E002C065
S1130BE0440F551F6A95E2F72427FC01E35FFE4F8B
S1130BF0208320910B0130910C018217930724F478
S1130C0090930C0180930B012091090130910A010A
S1130C102817390754F490930A018093090180E05E
S1130C20089581E0089581E0089580E008957F9219
S1130C308F929F92AF92BF92CF92DF92EF92FF92E8
S1130C400F931F93CF93DF93D82FC62F742E822E2A
S1130C50A22EB12CA61AB108C42ED12CC81AD108C0
S1130C60BB2034F4B194A194B10899249A9402C09D
S1130C7099249394DD202CF4D194C194D1081FEFCE
S1130C8001C011E0402F6C2F8D2F0E94BC058111F3
S1130C903EC0CC0CDD1CAA0CBB1CAC14BD04D4F4AB
S1130CA0C601959587957501E81AF90A7D1659F1DB
S1130CB0FF201CF0C90DEC18FD08D10FEA0CFB1C39
S1130CC0402F6C2F8D2F0E94BC05811120C0D7119D
S1130CD0EFCF19C0C501959587957601E81AF90AF1
S1130CE08C1689F0FF201CF0D10FEA18FB08C90DFF
S1130CF0EC0CFD1C402F6C2F8D2F0E94BC05811124
S1130D0006C0C811EFCF81E08093060180E0DF9137
S1130D10CF911F910F91FF90EF90DF90CF90BF90F4
S1130D20AF909F908F907F900895AF92BF92CF9293
S1130D30DF92EF92FF920F931F93CF93DF9384354B
S1130D4008F064C0603308F063C0D42F440F03E09C
S1130D50041BDD230CF455C0C22FB62EC82EAA24C2
S1130D60A39410E04C2FFD2EFB0C6F2DD12EDC0C28
S1130D708D2D0E94BC054C2FEB2CED1A6E2D8D2D64
S1130D800E94BC054C2F6F2DFC2CF11A8F2D0E9454
S1130D90BC054C2F6E2D8F2D0E94BC054C2FF12EBF
S1130DA0FB0C6F2DDD2EDC0C8D2D0E94BC054C2F11
S1130DB0EB2CE11A6E2D8D2D0E94BC054C2F6F2D4E
S1130DC0FC2CFD1A8F2D0E94BC054C2F6E2D8F2DEF
S1130DD00E94BC0500233CF49A2D24E0129F000DD0
S1130DE011240A5F09C09A2D812F8D1B24E0829F54
S1130DF0000D1124065FD1501F5FA394D9170CF086
S1130E00B1CF81E08093060180E003C081E001C09E
S1130E1081E0DF91CF911F910F91FF90EF90DF90D0
S1130E20CF90BF90AF900895BF92CF92DF92EF9290
S1130E30FF920F931F93CF93DF93843568F560334C
S1130E4068F56417C0F0D62FD41BDF5F6D17A0F4CC
S1130E501EC0C12F402F6D2F8C2F0E94BC05811105
S1130E601EC0CF5F2C2F30E02E153F059CF3DF5FB3
S1130E70BD1648F40CC0D0E0B62EC82ED12C760195
S1130E80E20EF11C182FCE14DF041CF3F0CF81E026
S1130E908093060180E003C081E001C081E0DF911E
S1130EA0CF911F910F91FF90EF90DF90CF90BF9063
S1130EB00895BF92CF92DF92EF92FF920F931F9308
S1130EC0CF93DF93662331F1122FD42F6C017C0171
S1130ED06894BB24B1F8B40E6150262F30E02F5F24
S1130EE03F4FC20ED31ECEE104C08C2FCB0D8435F0
S1130EF0B0F4F70141917F01419F402D112401E09D
S1130F002D2F6FE28C2F0E941407813051F0EC14C6
S1130F10FD0459F781E08093060180E003C081E07D
S1130F2001C081E0DF91CF911F910F91FF90EF906D
S1130F30DF90CF90BF900895EF92FF920F931F938D
S1130F40CF93DF93182FC62FD42FE22E843558F574
S1130F50443558F5603358F58FE2821750F1141771
S1130F6050F5621750F5F12E402F6C2F8F2D0E94F3
S1130F70BC05402F6E2D8F2D0E94BC05F394DF1508
S1130F8098F7402F6C2F812F0E94BC05402F6C2FA7
S1130F908D2F0E94BC05CF5FEC1698F781E08093FB
S1130FA0060180E00BC081E009C081E007C081E058
S1130FB005C081E003C080E001C080E0DF91CF91F3
S1130FC01F910F91FF90EF90089548EF51E0BC01FD
S1130FD08DE091E00E94220810920C0110920B0106
S1130FE087EF91E090930A018093090181E0809357
S1130FF00601089597FB072E16F4009407D077FD99
S113100009D00E940E0807FC05D03EF49095819506
S11310109F4F0895709561957F4F0895AA1BBB1B40
S113102051E107C0AA1FBB1FA617B70710F0A61BE4
S1131030B70B881F991F5A95A9F780959095BC0105
S1131040CD010895FB01DC0102C005900D924150D1
S10D10505040D8F70895F894FFCF3C
S109105A0102030405007D
S9030000FC
